:0600000002006B021FE18B
:03000B0002272E9B
:0300130002203494
:01001B0032B2
:03002300021F4970
:03002B0002290E99
:01003300329A
:03003B0002208719
:03004300021F0A8F
:01004B003282
:03005300021F95F4
:01005B003272
:0300630002290C63
:030066000220DB9A
:02006900E4733E
:0D006B0075813F123235E5826003020066A8
:1000780079F6E94400601B7A019035B0783A75A0AA
:1000880001E493F2A308B8000205A0D9F4DAF275E6
:02009800A0FFC7
:06009A00E478FFF6D8FD3A
:1000A0007800E84400600A799475A000E4F309D868
:1000B000FC78A6E84400600C7901900094E4F0A379
:0400C000D8FCD9FA95
:0200C400C20078
:0E00C6007808E4F608F608F608F6780C7600DE
:0200D400C20464
:0200D600C20561
:0300D800020066BD
:1000DC00758200122652AF827E007D007C008F82DA
:1000EC008E838DF0EC1229101214219000DD740215
:1000FC00F075820F1224D69000DD7402F075821018
:10010C001224D69000DD7402F075820E1224D6757E
:10011C008200121EFAAF82758201C007121EFAAE5F
:10012C0082758202C006121EFAAD82758203C0056A
:10013C00121EFAAC82758204C004121EFAAB8275D0
:10014C008205C003121EFAAA82758206C002121E14
:10015C00FAA982758207C001121EFAA8827582085C
:10016C00C000121EFA858210D000D001D002D0033C
:10017C00D004D005D006D007BFFF02800590013F08
:10018C00EFF0BEFF028005900140EEF0BDFF028053
:10019C0005900141EDF0BCFF028005900143ECF0AD
:1001AC00BBFF028005900144EBF0BAFF0280059082
:1001BC000145EAF0B9FF028005900147E9F0B8FF6C
:1001CC00028005900148E8F074FFB510028006909B
:1001DC000149E510F07E007F00C3EE9405EF6480CA
:1001EC009480400302028F8E0574632DF582C00744
:1001FC00C006121EFAAD82D006D007BDFF02800CDD
:10020C00EE244BF582EF3401F583EDF08E05746826
:10021C002DF582C007C006121EFAAD82D006D0079B
:10022C00BDFF02800CEE2450F582EF3401F583ED16
:10023C00F08E05746D2DF582C007C006121EFAAD46
:10024C0082D006D007BDFF02800CEE2455F582EF5C
:10025C003401F583EDF08E0574752DF582C007C061
:10026C0006121EFAAD82D006D007BDFF02800CEE3E
:10027C00245AF582EF3401F583EDF00EBE00010F28
:10028C000201E5758272121EFAAF82BFFF02800571
:10029C00900142EFF0758273121EFAAF82BFFF021B
:1002AC008005900146EFF0758274121EFAAF82BF82
:1002BC00FF02800590014AEFF075827A121EFAAFA8
:1002CC0082BFFF012290015FEFF0221213C2E58280
:1002DC00700302064E1213C9AF82BF0A0280ECBF34
:1002EC000D0280E79001FBE0FDA3E0FEC3749A9D34
:1002FC0074808EF063F08095F050079001FBE4F071
:10030C00A3F09001FBE0F5F0A3E045F07003BF0211
:10031C00BA9001FBE0FDA3E0FEBD0105BE0002802A
:10032C000302062BBF0302800302062B90332675B3
:10033C00F08012249D90135712220490013FE0FE8E
:10034C007D007C007B009000DA7410F08E828D832F
:10035C008CF0EB122438901357122204900140E0D9
:10036C00FE7D007C007B009000DA7410F08E828D94
:10037C00838CF0EB12243890135712220490014115
:10038C00E0FE7D007C007B009000DA7410F08E8221
:10039C008D838CF0EB1224389013571222049001A9
:1003AC0043E0FE7D007C007B009000DB7410F08E3F
:1003BC00828D838CF0EB12247890135712220490C8
:1003CC000144E0FE7D007C007B009000DB7410F0AB
:1003DC008E828D838CF0EB122478901357122204AA
:1003EC00900145E0FE7D007C007B009000DB7410EA
:1003FC00F08E828D838CF0EB12247890135712229E
:10040C0004900147E0FE7D007C007B009000DA74D4
:10041C0010F08E828D838CF0EB12243890135712CF
:10042C002204900148E0FE7D007C007B009000DA05
:10043C007410F08E828D838CF0EB1224389013574D
:10044C00122204900149E0FE7D007C007B009000AC
:10045C00DA7410F08E828D838CF0EB1224389013AA
:10046C005712220412241C9013571222047D007E72
:10047C0000C3ED9405EE648094805037ED244BF569
:10048C0082EE3401F583E0F97A007B007C00900069
:10049C00DA7410F089828A838BF0ECC006C00512E6
:1004AC002438901357122204D005D0060DBD00C17C
:1004BC000E80BE7D007E00C3ED9405EE64809480BA
:1004CC005037ED2450F582EE3401F583E0F97A00D3
:1004DC007B007C009000DA7410F089828A838BF0A8
:1004EC00ECC006C005122438901357122204D00514
:1004FC00D0060DBD00C10E80BE7D007E00C3ED9404
:10050C0005EE648094805037ED2455F582EE34016D
:10051C00F583E0F97A007B007C009000DA7410F02F
:10052C0089828A838BF0ECC006C0051224389013A4
:10053C0057122204D005D0060DBD00C10E80BE900E
:10054C000142E0FE7D007C007B009000DA7410F02C
:10055C008E828D838CF0EB12243890135712220468
:10056C00900146E0FE7D007C007B009000DB741067
:10057C00F08E828D838CF0EB12247890135712221C
:10058C000490014AE0FE7D007C007B009000DA7450
:10059C0010F08E828D838CF0EB122438901357124E
:1005AC00220412241C9013571222047D007E00C3D7
:1005BC00ED9405EE648094805037ED245AF582EE6C
:1005CC003401F583E0F97A007B007C009000DA744A
:1005DC0010F089828A838BF0ECC006C00512243897
:1005EC00901357122204D005D0060DBD00C10E8009
:1005FC00BE90015FE0FE7D007C007B009000DB7410
:10060C0010F08E828D838CF0EB122478901357129D
:10061C00220412133F9001FBE4F0A3F00202D790E6
:10062C0001FBE0FDA3E0FEED2460F582EE3401F564
:10063C0083EFF09001FBE02401F0A3E03400F00222
:10064C0002D79001FBE0FEA3E0FFBE9B05BF0002BA
:10065C00800302084A9001FBE4F0A3F0900160E0F3
:10066C00FFBF0202800302084A9001FAE0FFBF03B9
:10067C0002800302084A9000A47429F07433A3F09A
:10068C007480A3F090135712214812133F900094DA
:10069C00E4F0A3F0900094E0FEA3E0FFC3EE9475A9
:1006AC00EF64809480502D8E050EBE00010FEE2459
:1006BC0060F582EF3401F583E090009FF08D82C0ED
:1006CC0007C006121EC4D006D007900094EEF0EFBF
:1006DC00A3F080C09001F4E090009FF07582751239
:1006EC001EC49001F5E090009FF0758276121EC436
:1006FC009001F6E090009FF0758277121EC4900175
:10070C00F7E090009FF0758278121EC49001F8E01B
:10071C0090009FF0758279121EC49001F9E0900050
:10072C009FF075827A121EC4900161E090013FF037
:10073C00900162E0900140F0900163E0900141F083
:10074C00900164E0900143F0900165E0900144F069
:10075C00900166E0900145F0900167E0900147F050
:10076C00900168E0900148F0900169E0900149F037
:10077C007E007F00C3EE941EEF6480948050070EC1
:10078C00BE00F10F80EE7E007F00C3EE9405EF6497
:10079C008094804003020829EE244BFCEF3401FDC9
:1007AC0074642EFAE43FFBEA2460F582EB3401F525
:1007BC0083E08C828D83F0EE2450FCEF3401FD74C9
:1007CC00692EFAE43FFBEA2460F582EB3401F583F1
:1007DC00E08C828D83F0EE2455FCEF3401FD746EB9
:1007EC002EFAE43FFBEA2460F582EB3401F583E05A
:1007FC008C828D83F0EE245AFCEF3401FD74942E20
:10080C00FAE43FFBEA2460F582EB3401F583E0FB6C
:10081C008C828D83F00EBE00010F0207969001D3DF
:10082C00E0900142F09001D4E0900146F09001D5A7
:10083C00E090014AF09001F9E0FF90015FF07582C1
:10084C000F12258DAF82900096EFB40100E433F0C7
:10085C0075821012258DAF82900097EFB40100E4E1
:10086C0033F090015FE0FFBF01028003020C2E9079
:10087C00013EE06003020B9490013CE0FF90009677
:10088C00E0FEEFB50603020C3390013DE0FF900053
:10089C0097E0FDEFB50503020C33EE7003020C3349
:1008AC00ED7003020C3390013E7401F090013CEEAC
:1008BC00F090013DEDF0900146E0FF700C9001428C
:1008CC00E0F58212154D020C33BF013490014AE061
:1008DC00FEBEFF0280198E057E00900142E07B0077
:1008EC002EFEEB3DFD8E828D831216A7020C3390EB
:1008FC000142E0FE7D008E828D831216A7020C331E
:10090C00BF02377D007E00C3ED9405EE64809480B9
:10091C004003020C33ED245AF582EE3401F583E0EA
:10092C00FCBCFF02800D8C82C006C00512154DD098
:10093C0005D0060DBD00D00E80CDBF0303020C33D5
:10094C00BF044190014AE0FEE0700C900142E0F5DA
:10095C00821217BC020C33BE01028003020C3390CE
:10096C000142E0F5821217BC75820F12258DE582CB
:10097C00700A75821012258DE58260E390013EE4C9
:10098C00F0020C33BF05028003020A28900014E425
:10099C00F5F0122925E58224F6FB900014E4F5F01D
:1009AC00C003122925AA82D003EA24F6F5118B8202
:1009BC001217E3900064E4F5F01227EB75820F1226
:1009CC00258DE582700A75821012258DE58260BC3A
:1009DC00900014E4F5F0122925E58224F6FB900032
:1009EC0014E4F5F0C003122925AA82D003EA24F6F8
:1009FC00F5118B821217E3900064E4F5F01227EBEB
:100A0C0075820F12258DE58270C675821012258DA8
:100A1C00E58270BC90013EE4F0020C33BF0664909A
:100A2C00014AE0FEBE0115900142E024E1FDC3E461
:100A3C009DF5117582001217E3020C33BE02119062
:100A4C000142E024E1F5117582001217E3020C3328
:100A5C00BE0316900142E024E1FDC3E49DFD751137
:100A6C00008D821217E3020C33BE04028003020CC9
:100A7C0033900142E024E1FE7511008E821217E3DF
:100A8C00020C33BF07028003020B1590014AE0FEF3
:100A9C00BE0114900142E024E1FDC3E49DF5117503
:100AAC0082001217E3803DBE0210900142E024E167
:100ABC00F5117582001217E3802ABE0315900142CE
:100ACC00E024E1FDC3E49DFD7511008D821217E356
:100ADC008012BE040F900142E024E1FE7511008EDD
:100AEC00821217E3900064E4F5F01227EB75820F85
:100AFC0012258DE582700A75821012258DE58260B3
:100B0C008A90013EE4F0020C33BF082C90014AE0BD
:100B1C00FEBE010C900142E0F582121803020C3368
:100B2C00BE02028003020C33900142E0FEC3E49E3D
:100B3C00F582121803020C33BF09028003020C3336
:100B4C0090014AE0FFBF010B900142E0F5821218C0
:100B5C00038010BF020D900142E0FFC3E49FF582B9
:100B6C00121803900064E4F5F01227EB75820F1253
:100B7C00258DE582700A75821012258DE58260C084
:100B8C0090013EE4F0020C33900096E0FFE0600927
:100B9C00900097E06003020C3390013CEFF0900062
:100BAC0097E090013DF0900146E0FF700B90014200
:100BBC00E0F58212160E8063BF013090014AE0FE10
:100BCC00BEFF0280168E057E00900142E07B002E57
:100BDC00FEEB3DFD8E828D83121734900142E0FEB8
:100BEC007D008E828D831217348030BF022D7E04DF
:100BFC007F00EF20E725EE245AF582EF3401F583D0
:100C0C00E0FDBDFF02800D8D82C007C00612160EDE
:100C1C00D006D0071EBEFF011F80D790013EE4F026
:100C2C00800590013EE4F090013EE0600302126DFD
:100C3C0090013CE0FF900096E0FEEFB50603020F3A
:100C4C005E90013CEEF0EE7003020EE9900143E081
:100C5C00FF700C90013FE0F58212154D020F5EBF44
:100C6C000131900147E0FEBEFF0280168E057E002A
:100C7C0090013FE07B002EFEEB3DFD8E828D8312BA
:100C8C0016A790013FE0FE7D008E828D831216A781
:100C9C00020F5EBF02377D007E00C3ED9405EE644B
:100CAC008094804003020F5EED244BF582EE3401FC
:100CBC00F583E0FCBCFF02800D8C82C006C00512DF
:100CCC00154DD005D0060DBD00D00E80CDBF03163E
:100CDC00900147E0FEBE01028003020F5E7582B0F8
:100CEC00121774020F5EBF0432900147E0FEE070F1
:100CFC000C90013FE0F5821217BC020F5EBE0102A0
:100D0C008003020F5E90013FE0F5821217BC7582E2
:100D1C000F12258DE58260ED020F5EBF0577900006
:100D2C0014E4F5F0122925E58224F6FB900014E476
:100D3C00F5F0C003122925AA82D003EA24F6F51196
:100D4C008B821217E3900064E4F5F01227EB7582A6
:100D5C000F12258DE58260C6900014E4F5F012297F
:100D6C0025E58224F6FB900014E4F5F0C00312296B
:100D7C0025AA82D003EA24F6F5118B821217E39090
:100D8C000064E4F5F01227EB75820F12258DE582D5
:100D9C0070C6020F5EBF0664900147E0FEBE0115EF
:100DAC0090013FE024E1FDC3E49DF5117582001232
:100DBC0017E3020F5EBE021190013FE024E1F51132
:100DCC007582001217E3020F5EBE031690013FE01E
:100DDC0024E1FDC3E49DFD7511008D821217E30221
:100DEC000F5EBE04028003020F5E90013FE024E11F
:100DFC00FE7511008E821217E3020F5EBF076F9013
:100E0C000147E0FEBE011490013FE024E1FDC3E484
:100E1C009DF5117582001217E3803DBE0210900102
:100E2C003FE024E1F5117582001217E3802ABE031E
:100E3C001590013FE024E1FDC3E49DFD7511008D8B
:100E4C00821217E38012BE040F90013FE024E1FEF2
:100E5C007511008E821217E3900064E4F5F01227EE
:100E6C00EB75820F12258DE5826094020F5EBF0830
:100E7C002C900147E0FEBE010C90013FE0F5821280
:100E8C001803020F5EBE02028003020F5E90013F48
:100E9C00E0FEC3E49EF582121803020F5EBF090246
:100EAC008003020F5E900147E0FFBF010B90013FF2
:100EBC00E0F5821218038010BF020D90013FE0FF95
:100ECC00C3E49FF582121803900064E4F5F0122736
:100EDC00EB75820F12258DE58260CA8075900143F7
:100EEC00E0FF700B90013FE0F58212160E8063BF9D
:100EFC000130900147E0FEBEFF0280168E057E0099
:100F0C0090013FE07B002EFEEB3DFD8E828D831227
:100F1C00173490013FE0FE7D008E828D83121734D2
:100F2C008030BF022D7E047F00EF20E725EE244B9E
:100F3C00F582EF3401F583E0FDBDFF02800D8D825B
:100F4C00C007C00612160ED006D0071EBEFF011F2A
:100F5C0080D790013DE0FF900097E0FEEFB50603CF
:100F6C0002126D90013DEEF0EE70030211F890014B
:100F7C0044E0FF700C900140E0F58212154D021216
:100F8C006DBF0131900148E0FEBEFF0280168E0558
:100F9C007E00900140E07B002EFEEB3DFD8E828DAD
:100FAC00831216A7900140E0FE7D008E828D831285
:100FBC0016A702126DBF02377D007E00C3ED9405AB
:100FCC00EE64809480400302126DED2450F582EEA5
:100FDC003401F583E0FCBCFF02800D8C82C006C09E
:100FEC000512154DD005D0060DBD00D00E80CDBF1D
:100FFC00030302126DBF0432900148E0FEE0700C56
:10100C00900140E0F5821217BC02126DBE01028005
:10101C000302126D900140E0F5821217BC7582102C
:10102C0012258DE58260ED02126DBF0577900014DC
:10103C00E4F5F0122925E58224F6FB900014E4F582
:10104C00F0C003122925AA82D003EA24F6F5118BED
:10105C00821217E3900064E4F5F01227EB7582100E
:10106C0012258DE58260C6900014E4F5F012292556
:10107C00E58224F6FB900014E4F5F0C00312292558
:10108C00AA82D003EA24F6F5118B821217E39000A2
:10109C0064E4F5F01227EB75821012258DE5827051
:1010AC00C602126DBF0664900148E0FEBE011590A9
:1010BC000140E024E1FDC3E49DF511758200121797
:1010CC00E302126DBE0211900140E024E1F51175AE
:1010DC0082001217E302126DBE0316900140E02449
:1010EC00E1FDC3E49DFD7511008D821217E3021220
:1010FC006DBE0402800302126D900140E024E1FEFB
:10110C007511008E821217E302126DBF076F9001EA
:10111C0048E0FEBE0114900140E024E1FDC3E49DD3
:10112C00F5117582001217E3803DBE02109001404C
:10113C00E024E1F5117582001217E3802ABE031535
:10114C00900140E024E1FDC3E49DFD7511008D820A
:10115C001217E38012BE040F900140E024E1FE75EB
:10116C0011008E821217E3900064E4F5F01227EB65
:10117C0075821012258DE582609402126DBF082CC9
:10118C00900148E0FEBE010C900140E0F58212187F
:10119C000302126DBE0202800302126D900140E048
:1011AC00FEC3E49EF58212180302126DBF09028081
:1011BC000302126D900148E0FFBF010B900140E06B
:1011CC00F5821218038010BF020D900140E0FFC39E
:1011DC00E49FF582121803900064E4F5F01227EBFB
:1011EC0075821012258DE58260CA8075900144E0ED
:1011FC00FF700B900140E0F58212160E8063BF0168
:10120C0030900148E0FEBEFF0280168E057E0090F5
:10121C000140E07B002EFEEB3DFD8E828D8312178C
:10122C0034900140E0FE7D008E828D831217348055
:10123C0030BF022D7E047F00EF20E725EE2450F511
:10124C0082EF3401F583E0FDBDFF02800D8D82C07D
:10125C0007C00612160ED006D0071EBEFF011F8057
:0A126C00D7900032E4F5F00227EB02
:10127600900204E4F0C200227F00C3E5DB940792EB
:101286000140067D077E008004ADDB7E008F037C77
:1012960000C3EB9DEC64808EF063F08095F05017F0
:1012A600EF24FDFDE43401FE8F82758300E0FC8DA2
:1012B600828E83F00F80C3227F008F057E00C3EDF0
:1012C6009407EE940050188F057E00EF24FDF582FA
:1012D600E43401F583E0FC8D828E83F00F80DB9091
:1012E600000722900002E0FF900206F0E020E030C6
:1012F6009001FDE0FCA3E0FDA3E0FEA3E0FFBCB08F
:101306001FBD041CBE0019BF001675E200C2AF90D7
:10131600C35012289C90C35012289C12380080FE9D
:1013260022900098E4F0900206E06006900098741F
:1013360001F0900098E0F58222200014900207E068
:10134600FFE0600C8FD553D4FCD200900207E4F086
:1013560022E582900099F0900206E0605B7E007FB5
:10136600003000200EBE00010F900005C007C00629
:1013760012289CD006D007C3EE9450EF94C340E1E8
:1013860075820022900207E0FFBF400050257E00D4
:1013960074402FFFE43EFEEF2414FFEE3400FE906F
:1013A6000099E08F828E83F0900207E02401F075A9
:1013B60082012212133F80A575820022900204E06A
:1013C600F58222900204E07003F58222900205E085
:1013D6002414F582E43400F583E0FF900205E0046E
:1013E600F0900204E014F0E0700353D4F38F8222ED
:1013F60075D50074FC55D44402F5D4C2002230DE03
:1014060019900204E5DBF0900205E4F0900204E096
:10141600600874F355D44408F5D422121E61121ED6
:101426008B121E7A75DD0075D30075D50075D70051
:011436002293
:1014380075D70074FC55D64402F5D6900208E4F03E
:1014480022AF83E58290009AF0EFA3F090009CE031
:101458007003F582227E007F00900208E060200E73
:10146800BE00010F900005C007C00612289CD006D8
:10147800D007C3EE9450EF94C340DE7582002290EB
:10148800009AE0FEA3E0FF8E059000E0EDF0BE01BB
:1014980037BF00347D00BD080050278D037C0074E1
:1014A800412BFBE43CFCEB24A0FBEC3400FCED24DA
:1014B80009F582E43402F583E0FA8B828C83F00D1F
:1014C80080D475D709021540BE0236BF00337D00AF
:1014D800BD080050278D037C0074412BFBE43CFCC5
:1014E800EB24A0FBEC3400FCED2411F582E434027B
:1014F800F583E0FA8B828C83F00D80D475D7098050
:1015080037BE0334BF00317F00BF040050278F056A
:101518007E0074412DFDE43EFEED24A0FDEE340076
:10152800FEEF2419F582E43402F583E0FC8D828E07
:1015380083F00F80D475D7059002087401F053D654
:10154800FC75820122AF82BF880040088F06EE2416
:1015580078FE8042BF80004023900209E0FD8F049E
:10156800EC2480F5F005F07401800225E0D5F0FB4D
:10157800FC4205900209EDF07E00801AEF90332BB3
:1015880093FE7003F58222EE30E70B900209E044E7
:1015980002FFF053067F90020BE0FFB50602805C65
:1015A80090020CE0FFB50602805290020DE0FFB5F4
:1015B8000602804890020EE0FFB50602803E9002C7
:1015C8000FE0FFB506028034900210E0FFB5060276
:1015D800802A7F027D02ED2409FBE43402FC8B8221
:1015E8008C83E070088B828C83EEF080080D8D0769
:1015F800BD080040E1BF0804758200229000011276
:10160800144975820122AF82BF880040088F06EE18
:101618002478FE8043BF80004024900209E0FD8FBB
:1016280004EC2480F5F005F07401800225E0D5F083
:10163800FBF4FC5205900209EDF07E00801AEF9051
:10164800332B93FE7003F58222EE30E70B900209EC
:10165800E054FDFFF053067F7F02EE6016EF240989
:10166800FCE43402FD8C828D83E0B506068C828D05
:1016780083E4F00FBF080040E1900001121449759F
:101688008201227F00BF0800500FEF2409F582E491
:101698003402F583E4F00F80EC900001021449AEA7
:1016A80082AF83900211E0FCA3E0FDECB50606EDE5
:1016B800B50702806D900213E0FCA3E0FDECB506CF
:1016C80006EDB50702805B900215E0FCA3E0FDEC97
:1016D800B50606EDB507028049900217E0FCA3E0C5
:1016E800FDECB50606EDB5070280377D007C00EC01
:1016F80075F002A42411FA740235F0FB8A828B83F8
:10170800E0F8A3E0F948700B8A828B83EEF0EFA330
:10171800F080080C8C05BC040040D4BD040475821C
:10172800002290000212144975820122AE82AF8312
:101738007D00EE4F6026ED75F002A42411FB7402C3
:1017480035F0FC8B828C83E0F9A3E0FAE9B5060C4E
:10175800EAB507088B828C83E4F0A3F00DBD040082
:1017680040D090000212144975820122AF82C0074E
:1017780012154DAE82D0078F82C00612160ED00603
:101788008E8222AF82900219E04207900219EFF090
:1017980090000312144975820122AF82900219E069
:1017A800FEEFF45206900219EEF09000031214496D
:1017B80075820122AF8290021AE4F090021BF09029
:1017C800021CF08F82C00712178B90271012289CDA
:1017D800D0078F821217A275820122AF8290021A57
:1017E800EFF090021BE511F0900219E4F090021C52
:1017F800F090000312144975820122AF8290021CF6
:10180800EFF0900219E4F090021AF090021BF090A9
:091818000003121449758201223B
:10182200AFDBBF08028003021CA7900007E0FE7F27
:1018320000900006E0FD7C004FF512EC4EF5137FA0
:1018420000900001E0F514900000E0FE5460605347
:10185200900000E0FE5306607D00BE2005BD000240
:10186200800BBE4039BD00367FFF021CA97420B533
:101872001403021CA97421B5140280077422B51442
:1018820018800C1212BEAD82AE838D07021CA9C055
:10189200071212E9D007021CA97FFF021CA97FFFD1
:1018A200021CA9E51424F45003021CA3E514240B22
:1018B20083F582E514241083F583E47385B3A3735F
:1018C200A37DD6A38AA7A9A91C1A1C1B1C1A181C23
:1018D2001A1A1C1C900003E0FEBE01028013BE0215
:1018E200028027BE0302803BBE22030219DD0219D9
:1018F200FF90009D74ABF07433A3F09033BDE4937A
:10190200FD740193FE8D07021A0190009D74BFF0D1
:101912007433A3F09034BAE493FD740193FE8D07FF
:10192200021A01900002E0701990009D74BCF074DC
:1019320034A3F09034C0E493FD740193FE8D07024A
:101942001A01900002E0FEBE011990009D7400F0A1
:101952007435A3F090350EE493FD740193FE8D0768
:10196200021A01900002E0FEBE021890009D74D09F
:10197200F07434A3F09034E4E493FD740193FE8D8B
:1019820007807C900002E0FEBE031890009D74C2A6
:10199200F07434A3F09034CEE493FD740193FE8D81
:1019A20007805C900002E0FEBE041890009D74E681
:1019B200F07434A3F09034FEE493FD740193FE8D31
:1019C20007803C90009D74C2F07434A3F09034CE32
:1019D200E493FD740193FE8D078024900002E07071
:1019E2001890009D7425F07434A3F0903423E4938E
:1019F200FD740193FE8D0780067FFF80027FFFBF8B
:101A0200FF03021CA98F057E00C3ED9512EE95130C
:101A120050048D128E13AD12AE13C3ED9408EE94E2
:101A220000920240067B087C008004AB12AC138B50
:101A3200077C00C3EC9F501F8C027B0090009DE04E
:101A4200F8A3E0F9EC28F582E439F583E493F98A06
:101A5200828B83F00C80DC8F037C00EDC39BFDEE58
:101A62009CFE8D128E1390009DE0FDA3E0FE90007F
:101A72009DEF2DF0E43EA3F0021CA9900002E0FECF
:101A82008E12751300021CA990009CE0900000F0D9
:101A9200AD12AE13C3ED9401EE94005003021CA9E3
:101AA2007F01021CA9900002E0FE90009CF0021C43
:101AB200A9900000E0541F702F900003E0FD7E000B
:101AC200900002E0FC7B004206EB4205BE0114BD21
:101AD20000119033C6E493FE30E503021CA97FFF98
:101AE200021CA97FFF021CA9900000E0FE53061F02
:101AF2007D00BE0277BD0074900004E0FEBE0102CC
:101B0200805FBE02028049BE03028033BE040280AF
:101B12001DBE81028040BE8202802ABE83028014E2
:101B2200BE844474BC55DE4402F5DE021CA953DEB9
:101B320073021CA974BC55D64402F5D6021CA953E3
:101B4200D673021CA974BC55D44402F5D4021CA954
:101B520053D473021CA974BC55D24402F5D2021CA0
:101B6200A953D273021CA97FFF021CA97FFF021C8A
:101B7200A9900000E0541F702F900003E0FD7E004A
:101B8200900002E0FC7B004206EB4205BE0114BD60
:101B920000119033C6E493FE30E503021CA97FFFD7
:101BA200021CA97FFF021CA9900000E0FE53061F41
:101BB2007D00BE0205BD00028003021C819000036D
:101BC200E0FD7E00900002E0FC7B004206EB420555
:101BD200EE4D6003021C7D900005E0FD7E0090004A
:101BE20004E0FC7B004206EB4205BE0106BD000399
:101BF200021C71BE0205BD00028060BE0305BD006D
:101C0200028044BE0405BD00028028BE8105BD00DD
:101C1200028052BE8205BD00028036BE8305BD0031
:101C220002801ABE8451BD004E74BF55DE4403F5D6
:101C3200DE8074747F55DE440CF5DE806A74BF5515
:101C4200D64403F5D68060747F55D6440CF5D68011
:101C52005674BF55D44403F5D4804C747F55D44494
:101C62000CF5D4804274BF55D24403F5D280387447
:101C72007F55D2440CF5D27FFF802C7FFF80287FD6
:101C8200FF8024900000E4F0900001F0AD12AE134A
:101C9200C3ED9402EE940040047F02800AAF1280EA
:101CA200067FFF80027FFFBFFF077514FF75DCCF41
:101CB20022EF24F740068FDD75DCC02275DD00754A
:101CC200DCC0227405B5140280707406B51402805B
:101CD20003021D4AAE12AF13C3EE9408EF940092B2
:101CE2000340067C087D008004AC12AD137D00C366
:101CF200ED9C501F8D027B0090009DE0F8A3E0F95F
:101D0200ED28F582E439F583E493F98A828B83F036
:101D12000D80DC8C037D00EEC39BFEEF9DFF8E12D7
:101D22008F1390009DE0FEA3E0FF90009DEC2EF04B
:101D3200E43FA3F08CDD63DC4022E5E35480FFE561
:101D4200124FF5E375DC022275DD0075DC022274A8
:101D520020B5140D30DE1012127E75DD0085DCDC3C
:101D62002275DD0043DC022275D30074FC55D24497
:101D720002F5D22290021D7401F075D30853D2FCF1
:101D82007582012220D903021E37E5D9540FFFAD17
:101D9200D95305307E00BD0005BE0002801CBD1077
:101DA20005BE00028037BD2005BE00028044BD3062
:101DB20006BE0003021E1D021E35EF24FB50030265
:101DC2001E35EF2F901DCA7380088067800A8063DA
:101DD2008061121D51021E351214048056EF24FB3D
:101DE2004051EF2F901DEA73804980478045804320
:101DF2008041EF24FB403CEF2F901DFF7380088051
:101E02000B800E8011802C121CC58027121D6A8047
:101E1200221213F6801D1214388018EF24FB40138F
:101E2200EF2F901E287380088009800780058003A9
:101E3200121822C2D930D81A75DC0275D21275D4A2
:101E42001275E300C2DAC2D9C2D890009CE4F01243
:101E5200127610DA0122E5DA20E20375D8FF227544
:101E6200E20053E27F43E22975E30053E2BF53D11C
:101E7200FB75D18043D1012243E10443E10243E1F6
:101E82000143D81FD2EAD2AF227E007F008EEC8FB0
:101E9200ED7E0A7F008EEE8FEF7E147F008EE48F40
:101EA200E57EA07F008EE68FE775EB0C43EB4043A7
:101EB200EB8075D21275D41275D61275EA4075DCB4
:021EC2000222FA
:101EC400AF82BF800040012275A15575A1AA43B11C
:101ED4000475A1007585C0EF2FF58490009FE0F58F
:101EE4008EE58630E60375869A75A15575A1AA53C9
:101EF400B1FB75A10022AF827585C0EF2FF5847503
:061F0400868E858E82220C
:101F0A00C021C0E0C0F0C082C083C007C006C005BF
:101F1A00C004C003C002C001C000C0D075D0001206
:101F2A001D86D0D0D000D001D002D003D004D00575
:101F3A00D006D007D083D082D0F0D0E0D02132C0F2
:101F4A0021C0E0C0F0C082C083C007C006C005C07F
:101F5A0004C003C002C001C000C0D075D0003098D0
:101F6A0005123119C298309905123159C299D0D047
:101F7A00D000D001D002D003D004D005D006D007BB
:101F8A00D083D082D0F0D0E0D02132C021C0E0C0CE
:101F9A00F0C082C083C007C006C005C004C003C029
:101FAA0002C001C000C0D075D00030C0051231A7F0
:101FBA00C2C030C1051231E7C2C1D0D0D000D001B1
:101FCA00D002D003D004D005D006D007D083D08267
:101FDA00D0F0D0E0D02132C021C0E0C0F0C082C031
:101FEA0083C007C006C005C004C003C002C001C048
:101FFA0000C0D075D000900220E0FEA3E0FFC00729
:10200A00C0068E828F83120069D006D007D0D0D046
:10201A0000D001D002D003D004D005D006D007D01A
:10202A0083D082D0F0D0E0D02132C021C0E0C0F00D
:10203A00C082C083C007C006C005C004C003C00276
:10204A00C001C000C0D075D000900222E0FEA3E01B
:10205A00FFC007C0068E828F83120069D006D007A0
:10206A00D0D0D000D001D002D003D004D005D00601
:10207A00D007D083D082D0F0D0E0D02132C021C0A6
:10208A00E0C0F0C082C083C007C006C005C004C05B
:10209A0003C002C001C000C0D075D00090021EE08B
:1020AA00FEA3E04E600E90021EE0F8A3E0F58388DE
:1020BA0082120069D0D0D000D001D002D003D0045F
:1020CA00D005D006D007D083D082D0F0D0E0D0217E
:1020DA00321228D71200DC1202D780FB7582002246
:1020EA00AE82AF839000A0E0FBA3E0FCA3E0FD7A00
:1020FA00009000A3E0F9890019E8603F8B828C8385
:10210A008DF0122F28F8A3AB82AC83C007C006C09B
:10211A0005C004C003C002C0011221288007C006FE
:10212A00C007888222A882D001D002D003D004D06E
:10213A0005D006D007E860030A80BB8A8222AE82F5
:10214A00AF839000A4E0FBA3E0FCA3E0FD9000A411
:10215A00E0F5F0A3E045F07003F582227A008B8265
:10216A008C838DF0122F28F9A3AB82AC83E9F86037
:10217A002CC007C006C005C004C003C00212218CCF
:10218A008007C006C007888222A982D002D003D065
:10219A0004D005D006D007E960030A80C18A8222EA
:1021AA00AE82AF839000A7E0FAA3E0FBA3E0FCA312
:1021BA00E0FD9000AFEAF0EBA3F0ECA3F0EDA3F0A2
:1021CA009000B3740AF08E828F8302223BAE82AFF4
:1021DA00839000ABE0FAA3E0FBA3E0FCA3E0FD9050
:1021EA0000D5EAF0EBA3F0ECA3F0EDA3F09000D950
:1021FA00740AF08E828F83022324AE82AF83C007D3
:10220A00C0061222118008C006C00775820D22ADD1
:10221A0082D006D007C007C0051222288008C0064F
:10222A00C00775820A22AE82D005D007EE2DF5824C
:10223A00228582228583239000D4E4F09000B3E0C3
:10224A00FDBD020050069000B3740AF09000B3E09E
:10225A00F5247BD47C009000AFE0F525A3E0F526B9
:10226A00A3E0F527A3E0F528852429752A00752B14
:10227A0000752C00C004C003C029C02AC02BC02C82
:10228A008525828526838527F0E528122BC7A88213
:10229A00E58124FCF581C000C029C02AC02BC02CCE
:1022AA008525828526838527F0E528122D86AA8230
:1022BA00AD83AEF0FFE58124FCF581D000D003D0D8
:1022CA00049000AFEAF0EDA3F0EEA3F0EFA3F01B49
:1022DA00BBFF011C8B068C07B80A005008880574DE
:1022EA00302DFD8004743728FD8E828F83EDF090A7
:1022FA0000AFE0F5F0A3E042F0A3E042F0A3E0452E
:10230A00F060030222609000A4EBF0ECA3F0E4A3D7
:10231A00F085228285238302214885822D85832E9A
:10232A009000D9E0FD701B9000D5E0F9A3E0FAA374
:10233A00E0FBA3E0FC1223448007C02DC02E898253
:10234A002222BD0A0280030223F19000D5E0F9A3FC
:10235A00E0FAA3E0FBA3E0FC30E76FC004C003C0CF
:10236A0002C0011223728008C02DC02E75822D2250
:10237A00A882D001D002D003D004882F9000D5C300
:10238A00E499F0E49AA3F0E49BA3F0E49CA3F09010
:10239A0000D5E0F530A3E0F531A3E0F532A3E0F58E
:1023AA00339000AFE530F0E531A3F0E532A3F0E574
:1023BA0033A3F09000B3740AF0852D82852E831220
:1023CA00223BAF82E52F2FF582229000AFE9F0EA97
:1023DA00A3F0EBA3F0ECA3F09000B3740AF0852D00
:1023EA0082852E8302223B9000D5E0FBA3E0FCA36A
:1023FA00E0FEA3E0FF9000AFEBF0ECA3F0EEA3F059
:10240A00EFA3F09000B3EDF0852D82852E83022292
:01241A003B86
:10241C0022AC82AD83AEF0FF9000ABECF0EDA3F0FC
:10242C00EEA3F0EFA3F09013570221D7AC82AD834B
:10243C00AEF0FF9000DAE0FB9000D5ECF0EDA3F0ED
:10244C00EEA3F0EFA3F09000D9EBF090135702231A
:10245C0024AC82AD83AEF0FF9000A7ECF0EDA3F0BE
:10246C00EEA3F0EFA3F09013570221AAAC82AD8338
:10247C00AEF0FF9000DBE0FB9000D5ECF0EDA3F0AC
:10248C00EEA3F0EFA3F09000D9EBF09013570223DA
:10249C0024AD82AE83AFF09000A4EDF0EEA3F0EF8C
:1024AC00A3F0901357022148AD82AE83AFF0900099
:1024BC00DCE0FC9000A0EDF0EEA3F0EFA3F09000B8
:0924CC00A3ECF09013570220EA82
:1024D600E582FF90356093FEEF90353893FF7001EB
:1024E600229000DDE0FD701BBF0209EEF4FC529263
:1024F600EC529322BF0402800122EEF4FC5296ECC9
:10250600529722BD0214BF0207EE4292EE42932278
:10251600BF0439EE4296EE429722BD0116BF02086D
:10252600EEF45292EE429322BF0421EEF45296EE5E
:10253600429722BD0316BF0208EE4292EEF4529372
:1025460022BF0408EE4296EEF4FE529722AF82BFF7
:102556000102800FBF02028013BF03028017BF046F
:1025660025801BE5C620E21E539DFB22E5C620E31F
:1025760015539DF722E5C630E20C539DFB22E5C6B6
:1025860030E303539DF722E582FF90351093FEEF6B
:1025960090356093FDEF90353893FF7003F58222F6
:1025A600EE600D8E82C007C005122553D005D007F8
:1025B6007E00BF0202800ABF03028009BF040C80AE
:1025C60008AE908006AEA08002AEB0ED5E600475E7
:1025D60082012275820022E582FF90351093FEEF7C
:1025E60090356093FDEF90353893FFEE600D8E8247
:1025F600C007C005122553D005D007A2AFE433FEAD
:10260600C2AFBF0202800ABF03028017BF04368032
:10261600249000DEE07007EDF4FF52908027ED4233
:102626009080229000DEE07007EDF4FF52A0801546
:10263600ED42A080109000DEE07007EDF4FF52B08E
:0B2646008003ED42B0EE6002D2AF2234
:10265200E58290358893FFBFFF0475820022759A48
:102662000974FC5580FE74035F4EF580D284208489
:10267200FD859F8222AF829000DD7401F08F82C0BF
:10268200071224D6D0079000DFE0FDA3E0FE4D70D4
:102692000A9000DEE4F08F820225DD8D038E047441
:1026A200FF2C500B9000DE7401F08F820225DDEFCB
:1026B20090351093FA24FB4054EA2A9026C1738085
:1026C2004C800680158024803353C6FB439D04430F
:1026D2009D10E59D30E4FB8D9C2253C6F7439D0877
:1026E200439D10E59D30E4FB8D9B2243C604439D30
:1026F20004439D10E59D30E4FB8D9C2243C60843B4
:102702009D08439D10E59D30E4FB8D9B22C3EB9415
:1027120080EC9400500A9000DEE4F08F820225DD06
:0B2722009000DE7401F08F820225DDC4
:10272E00C0D075D00808B8000D09B900090ABA0062
:10273E00050BBB00010CD0D032A2AFC2AFA808A9C6
:10274E0009AA0AAB0BAC8A8588F092AF30F51274E9
:10275E00012C600D08B8000909B900050ABA00017C
:10276E000BC3EC9406FCECC313FC75F07DE8A4F8E7
:10277E00ADF075F07DE9A42DF9E435F0FD75F07D31
:10278E00EAA42DFAE435F0FD75F07DEBA42DFB7D6A
:10279E0000EC28F582E93DF583EA3DF5F0EB3D22AC
:1027AE00A2AFC2AFA808A909AA0AAB0BAC0C92AF94
:1027BE0075F020E8A4A8F075F020E9A428F582A809
:1027CE00F075F020EAA428F583A8F075F020EBA4AC
:1027DE0028F9A8F075F020ECA42889F0228582341F
:1027EE0085833585F036F537122747858238858300
:1027FE003985F03AF53BE5344535453645377001B8
:10280E0022A834A935AA36AB3785383C85393D85A3
:10281E003A3E853B3FE8494A4B60DBC003C002C0ED
:10282E0001C000122747AC82AD83AEF0FFD000D0BE
:10283E0001D002D003ECC3953CFCED953DFDEE9529
:10284E003EFEEF953FFFC3EC94E8ED9403EE94004B
:10285E00EF940040A118B8FF0919B9FF051ABAFF85
:10286E00011B883489358A368B3774E8253CF53C54
:10287E007403353DF53DE4353EF53EE4353FF53F19
:10288E00853C38853D39853E3A853F3B8087AE8213
:10289E00AF83C374019EE49F40022200C374029E64
:1028AE00FE74009FFF00BE0005BF00020022000064
:1028BE000000000000000000000000000000000EFC
:1028CE00BE00EB0FBF00ED002275A15575A1AA74D5
:1028DE00F855B94406F5B975A10090138812289CD5
:1028EE00759E5D759D0074F055894402F58953C936
:0D28FE00EF758C06C28DD2A9D28CD2AF220C
:01290C003298
:01290E003296
:10291000AC82AD83AEF0FFEC4D4E4F60078C828DE4
:1029200083022F0022AC82AD83AEF0FFEC4D4E4F00
:102930007007900000E4F5F022C007C006C005C093
:1029400004122E88AA82AB83D004D005D006D0070B
:102950008A00EBF93395E0FAFBC004C005C006C05D
:1029600007888289838AF0EB122AD0AC82AD83AECD
:10297000F0FFE58124FCF5818C828D838EF0EF22BF
:10298000AC82AD83AEF0FF9000E1E0F8A3E0F9A3E4
:10299000E0FAA3E0FBC3EC98ED99EE9AEF64808B2C
:1029A000F063F08095F040088C828D838EF0EF22EA
:1029B000E8C39CF8E99DF9EA9EFAEB9F8882898337
:1029C0008AF0C007C006C005C004122925A882A944
:1029D00083AAF0FBD004D005D006D007EC28FCED8C
:1029E00039FDEE3AFEEF3B8C828D838EF022AC8275
:1029F000AD83AEF0FF9000E5E0F8A3E0F9A3E0FAC4
:102A0000A3E0FBECC398F515ED99F516EE9AF517D2
:102A1000EF9BF5189000EDE0F519A3E0F51AA3E09F
:102A2000F51BA3E0F51C9000F1E0FCA3E0FDA3E0A2
:102A3000FEA3E0FFECC39519FCED951AFDEE951B86
:102A4000FEEF951CFFC003C002C001C000C004C05F
:102A500005C006C0078515828516838517F0E51821
:102A6000122F4485821585831685F017F518E581A8
:102A700024FCF581D000D001D002D0039000E9E021
:102A8000FCA3E0FDA3E0FEA3E0FFECC398F8ED9902
:102A9000F9EE9AFAEF9BFBC000C001C002C00385AB
:102AA00015828516838517F0E518122C89AC82AD46
:102AB00083AEF0FFE58124FCF581E5192CFCE51AD5
:102AC0003DFDE51B3EFEE51C3F8C828D838EF02292
:102AD000C01D85811DAC82AD83AEF0FFE581240C65
:102AE000F581EF33E433FB6015A81D08C3E49CF6C1
:102AF000E49D08F6E49E08F6E49F08F6800EA81D03
:102B000008A60408A60508A60608A607A81D08E545
:102B10001D2405F9E6F708E609F708E609F708E6CF
:102B200009F7E51D24FAF8080808E630E717E51D5F
:102B300024FAF8C3E496FC08E496FD08E496FE083F
:102B4000E496FF8010E51D24FAF88604088605083F
:102B500086060886078C02C003C002C005C006C0F6
:102B600007E51D2405F886820886830886F008E6B6
:102B7000122BC7AC82AD83AEF0FFE58124FCF5815A
:102B8000D003E51D2409F8A60408A60508A6060832
:102B9000A607EB601DE51D2409F8C3E496FA08E4D6
:102BA00096FB08E496FE08E496FF8A828B838EF0FB
:102BB000800FE51D2409F886820886830886F008C0
:102BC000E6851D81D01D22C01D85811DAC82AD838F
:102BD000AEF0FF05817B00A81D087600E51D24FAF4
:102BE000F8080808E6235401FA704CE51D24FAF8A9
:102BF000E626F608E633F608E633F608E633F6E5A9
:102C00001D24FAF8C3EC96ED0896EE0896EF0896A8
:102C1000501AE51D24FAF8080808E6C313F618E66A
:102C200013F618E613F618E613F6800BA81D08062F
:102C3000A81D08860380A5E51D24FAF8C3EC96EDCF
:102C40000896EE0896EF08964015E51D24FAF8EC74
:102C5000C396FCED0896FDEE0896FEEF0896FFE59C
:102C60001D24FAF8080808E6C313F618E613F61848
:102C7000E613F618E613F68B021BEA70BA8C828D07
:102C8000838EF0EF1581D01D22C01D85811DAC8281
:102C9000AD83AEF0FFE581240CF581EF33E433FB27
:102CA0006015A81D08C3E49CF6E49D08F6E49E08A0
:102CB000F6E49F08F6800EA81D08A60408A60508DD
:102CC000A60608A607A81D08E51D2405F9E6F708CD
:102CD000E609F708E609F708E609F7E51D24FAF81A
:102CE000080808E633E433FA6017E51D24FAF8C350
:102CF000E496FC08E496FD08E496FE08E496FF805E
:102D000010E51D24FAF8860408860508860608865C
:102D100007C003C002C004C005C006C007E51D24EB
:102D200005F886820886830886F008E6122D86ACB0
:102D300082AD83AEF0FFE58124FCF581D002D003A3
:102D4000E51D2409F8A60408A60508A60608A60796
:102D5000EA6B601DE51D2409F8C3E496FA08E496C1
:102D6000FB08E496FE08E496FF8A828B838EF0804F
:102D70000FE51D2409F886820886830886F008E698
:102D8000851D81D01D22C01D85811DC082C083C0CC
:102D9000F0C0E07A007B007E007F007D20A81D0847
:102DA000080808E6235401FCA81D08E626F608E6F4
:102DB00033F608E633F608E633F6EA2AFAEB33FB95
:102DC000EE33FEEF33FFEC6003430201E51D24FA0E
:102DD000F8C3EA96EB0896EE0896EF0896401CE5D5
:102DE0001D24FAF8EAC396FAEB0896FBEE0896FE65
:102DF000EF0896FFA81D08E64401F6DDA0A81D080F
:102E000086820886830886F008E6851D81D01D220B
:102E100022AF82BF0200503EEF75F002A42420FDD5
:102E2000740235F0FE9000F5E0FBA3E0FC8D828E8D
:102E300083EBF0ECA3F0BF00028005BF0118800B0C
:102E40009000F7E024FF9288D2A8229000F7E0FFDC
:102E500024FF928AD2AA22AF82BF02005028BF006C
:102E6000028005BF01088004C2A88002C2AAEF75D3
:102E7000F002A42420FE740235F0FF8E828F83744A
:072E800010F0742EA3F022F4
:102E8800900224E0FCA3E0FDA3E0FEA3E0FF8D0098
:102E9800EEC313C813C8C313C813C8F9EF03035408
:102EA800C049F9EF0303543FFA7B00EC6200ED627E
:102EB80001EE6202EF6203E828FDE933FEEA33FF20
:102EC8007C00E86204E96205EA6206EB6207EFC388
:102ED80013F8E4F9FAFBE86204E96205EA6206EB32
:102EE8006207900224ECF0EDA3F0EEA3F0EFA3F05C
:102EF80053057F8C828D8322AF83E5829000F8F0A2
:102F0800EFA3F09000F8E0FEA3E0FF7D007C0090C6
:102F18000224EEF0EFA3F0EDA3F074804CA3F022AE
:102F280020F71430F6148883A88220F507E6A883D2
:102F380075830022E280F7E49322E022C01D858198
:102F48001DC082C083C0F0C0E0E5812408F581E59A
:102F58001D2409F92402F8AF1D0F8F06C000A8062A
:102F68008606E51D24FAFDFC0C0CA8048604D00096
:102F78008EF0ECA4FEABF0A60608A6038F068E0022
:102F880086068D048C0086048EF0ECA4FEABF0A7B8
:102F98000609A703E51D24092403F987068F04748D
:102FA800032CF886048D038B0086038CF0EBA42E8B
:102FB800FEF78F0474022CF886048D03EB04F88660
:102FC800038CF0EBA42EF7E51D24092402F98704ED
:102FD800098706198F0374022BF886038D028A006D
:102FE80086028BF0EAA4ABF02CFCEB3EFEA70409AA
:102FF800A706198F03EB04F886038D02EA04F88606
:10300800028BF0EAA4ABF02CFCEB3EFEA70409A768
:10301800068F0674032EF98F06EE04F886068D04D3
:1030280074022CF886048EF0ECA4F78F06EE04F9EF
:103038008F06EE04F886068D048C0086048EF0EC6C
:10304800A4FEABF0A70609A7038D0674032EF98F1B
:10305800068E0086068D0474032CF886048EF0EC28
:10306800A4F78D06EE04F98F068E0086068D04EC13
:1030780004F886048EF0ECA4FEABF0A70609A703BB
:103088008D0177008F017700E51D2409F9E51D24DE
:1030980005F8E7F609E708F609E708F609E708F684
:1030A800191919A81D0886020886030886060886C5
:1030B80007E51D2405F8EA26F6EB0836F6EE08368D
:1030C800F6EF0836F6E51D2405F8E6F70908E6F7F1
:1030D8000908E6F70908E6F7191919E709E709E7FA
:1030E80009E7E51D24FAF886040886050886060817
:1030F8008607E51D2405F8EC26FCED0836FDEE08EC
:1031080036FEEF08368C828D838EF0851D81D01DAA
:013118002294
:10311900900228E0FF7E000FBF00010E7410C0E08E
:10312900E4C0E08F828E83123239AE821581158117
:10313900900229E0FFEEB5070122900228E024FA67
:10314900F582E43400F583E599F0900228EEF02247
:1031590030044A90022AE0FF90022BE0FEEFB50608
:1031690005A204C2042290022BE0240AF582E43469
:1031790001F583E0F59990022BE0FF7E000FBF0077
:10318900010E7410C0E0E4C0E08F828E83123239E0
:0E319900AE82AF831581158190022BEEF022DD
:1031A70090022CE0FF7E000FBF00010E7410C0E0FC
:1031B700E4C0E08F828E83123239AE821581158189
:1031C70090022DE0FFEEB507012290022CE0241AB1
:1031D700F582E43401F583E5C1F090022CEEF0228C
:1031E70030054A90022EE0FF90022FE0FEEFB50671
:1031F70005A205C2052290022FE0242AF582E434B5
:1032070001F583E0F5C190022FE0FF7E000FBF00BC
:10321700010E7410C0E0E4C0E08F828E8312323951
:0E322700AE82AF831581158190022FEEF0224A
:1032350075820022C01D85811DAE82E583FF33E4C2
:1032450033FD6009C3E49EFBE49FFC80048E038F7D
:1032550004E51D24FCF808E630E70FE51D24FCF81D
:10326500C3E496FE08E496FF800AE51D24FCF88673
:1032750006088607C005C006C0078B828C831232FC
:10328500A7AE82AF8315811581D005ED600DC3E42E
:103295009EFCE49FFD8C828D8380048E828F83D07B
:1032A5001D22C01D85811DAE82AF837D007C00E59A
:1032B5001D24FCF808E6235401FB702FE51D24FCB2
:1032C500F8E626F608E633F6E51D24FCF8C3EE9687
:1032D500EF08965011E51D24FCF808E618C313C63F
:1032E50013C608F680050C8C0580C4E51D24FCF882
:1032F500C3EE96EF0896400DE51D24FCF8EEC39647
:10330500FEEF0896FFE51D24FCF808E618C313C672
:1033150013C608F68D041DEC70D18E828F83D01DE7
:013325002285
:053326007636003100C5
:10332B0000000000000000002A2B28000000000015
:10333B000000000000000000000000000000000082
:10334B002C9EB4A0A1A2A434A6A7A5AE362D3738C7
:10335B00271E1F20212223242526B333B62EB7B8D0
:10336B009F8485868788898A8B8C8D8E8F9091928E
:10337B00939495969798999A9B9C9D2F3130A3ADDA
:10338B00350405060708090A0B0C0D0E0F10111258
:10339B00131415161718191A1B1C1DAFB1B0B50055
:1033AB0012011001EF020108091250C501010102BF
:1033BB0003011200090264000301008064080B0082
:1033CB0002020201040904000001020201040524A7
:1033DB00001001052401000004240202052406004C
:1033EB00010705810308004009040100020A0000DF
:1033FB000407050202400000070582024000000995
:10340B000402000103010100092110012101229591
:10341B00000705830310000A950005010906A101A9
:10342B008501050719E029E71500250195087501A8
:10343B00810295017508810395067508150026FF15
:10344B00000507190029E781000508190129051551
:10345B00002501950575019102950175039103C036
:10346B00050C0901A1018502150026FF0319002A8D
:10347B00FF03950475108100C005010902A1010924
:10348B0001A10085030509190129031500250195E3
:10349B000375018102950175058103050109300949
:1034AB003109381581257F750895038106C0C064E5
:1034BB00000403090404000C0343004800350035E5
:1034CB000078000C0016034D006F0072007300654E
:1034DB00004C0069006E006B001400170359007557
:1034EB000061006E002D00530065007200690061E1
:1034FB00006C0018000E032D005900750061006E62
:05350B00002D000E0080
:1035100000000000000000000000000000000001AA
:103520000000000000000000000000000000030494
:103530000000020000000000010101010101010181
:10354000000002020202020202020000030303035F
:10355000030303030000040404040404040400003F
:10356000010204081020408000000102040810201D
:103570004080000001020408102040800000010289
:103580000408102040800000FFFFFFFFFFFFFFFF47
:10359000FFFFFF00FFFF0102FFFFFFFFFFFFFFFF35
:1035A000FFFFFFFFFFFFFFFF03FFFFFFFFFFFFFF27
:1035B000DB20000000776165FF02000202FFFFFFD1
:1035C000FF8063FFFFFFFFFFFFFFFF8076FFFFFF2E
:1035D000876CFFFFFF01FFFFFFFFFFFFFFFFFFFF04
:1035E000FFFFFFFFFFFFFFFFFFFFFFFFFFFFFFFFEB
:1035F000FFFFFFFFFFFFFFFFFFFFFFFFFFFFFFFFDB
:10360000FFFFFFFFFFFFFFFFFFFFFFFFFFFFFFFFCA
:10361000FFFFFFFFFFFFFFFFFFFFFFFFFFFFFFFFBA
:10362000FFFFFFFFFFFFFFFFFFFFFFFFFFFFFFFFAA
:10363000FFFFFFFFFFFFFFFFFFFFFFFFFFFFFFFF9A
:10364000FFFFFFFFFFFFFFFFFFFFFFFFFFFFFFFF8A
:10365000FFFFFFFFFFFFFFFFFFFFFFFFFFFFFFFF7A
:10366000FFFFFFFFFFFFFFFFFFFFFFFFFFFFFFFF6A
:03367000FF000058
:0B36730000E100000000080000000063
:10367E00000000000000000000000000000000003C
:05368E00000000000037
:013693000036
:02369400000034
:04369600102E102EB4
:04369A0001000080AB
:04369E000000000028
:0436A2000000000024
:00000001FF
